:03000000020800F3
:0C080000787FE4F6D8FD758119020847E6
:0C0972000A083F065B4F666D7D077F6F33
:090949007C0012088C7FC87E00BE
:10095200E4FDFCC3ED9FEC9E5015E4FBFA0BBB00DB
:0F096200010AEB64784A70F50DBD00010C80E4CA
:010971002263
:10088C00EFB40800504D900899F82828730208B16D
:10089C000208B50208B90208BD0208C10208C90263
:1008AC0008D10208D9C2B2800EC2B28012C2B28084
:1008BC0016C2B2801AD2B2C2B1C2B08016D2B2C2C3
:1008CC00B1D2B0800ED2B2D2B1C2B08006D2B2D206
:1008DC00B1D2B074082DF8E6F5807FF47E011209D0
:0508EC0052E4F580223A
:1008F100E4F515F514F513F512F519F518F517F5D5
:10090100167D017C00E4FF12094B7D027F01120973
:10091100497D037F021209497D047C007F0312098E
:100921004B7D057C007F0412094B7D067C007F0511
:1009310012094B7D077C007F0612094B7D087C0064
:080941007F0712094B020902B5
:10080C000208F1E493A3F8E493A34003F68001F209
:10081C0008DFF48029E493A3F85407240CC8C333ED
:10082C00C4540F4420C8834004F456800146F6DFBC
:10083C00E4800B0102040810204080900972E47ED1
:10084C00019360BCA3FF543F30E509541FFEE493B1
:10085C00A360010ECF54C025E060A840B8E493A378
:10086C00FAE493A3F8E493A3C8C582C8CAC583CAA3
:10087C00F0A3C8C582C8CAC583CADFE9DEE780BE5B
:01097E000078
:00000001FF
